:020000040800F2
:1000000000000220BD3E0008A53D0008AD3D0008EF
:10001000B53D0008BD3D0008C53D000800000000DA
:10002000000000000000000000000000CD3D0008BE
:10003000DB3D000800000000E93D0008F73D000836
:100040000D3F00080D3F00080D3F00080D3F000860
:100050000D3F00080D3F00080D3F00080D3F000850
:100060000D3F00080D3F00080D3F00080D3F000840
:100070000D3F00080D3F00080D3F00080D3F000830
:100080000D3F00080D3F00080D3F00080D3F000820
:100090000D3F00080D3F00080D3F0008033E00081B
:1000A0000D3F00080D3F00080D3F00080D3F000800
:1000B000193E00080D3F00080D3F00080D3F0008E5
:1000C0000D3F00080D3F00080D3F00080D3F0008E0
:1000D0000D3F00080D3F00080D3F00080D3F0008D0
:1000E0000D3F00080D3F00080D3F00080D3F0008C0
:1000F0000D3F00080D3F00080D3F00080D3F0008B0
:100100000D3F00080D3F00080D3F00080D3F00089F
:100110000D3F00080D3F00080D3F00080D3F00088F
:100120000D3F00080D3F00080D3F00080D3F00087F
:100130000D3F00080D3F00080D3F00080D3F00086F
:100140000D3F00080D3F00080D3F00080D3F00085F
:100150000D3F00080D3F00080D3F00080D3F00084F
:100160000D3F00080D3F00080D3F00080D3F00083F
:100170000D3F00080D3F00080D3F00080D3F00082F
:100180000D3F00080D3F00080D3F00080D3F00081F
:100190000D3F0008000000000D3F00080D3F000863
:1001A0000D3F00080D3F00080D3F00080D3F0008FF
:1001B0000D3F00080D3F00080D3F00080D3F0008EF
:1001C0000D3F00080D3F00080D3F00080D3F0008DF
:0801D0000D3F00080D3F00087F
:1001E00010B5054C237833B9044B13B10448AFF371
:1001F00000800123237010BD400A00200000000091
:100200009481000808B5034B1BB103490348AFF3C1
:10021000008008BD00000000440A0020948100080E
:1002200001F0FF01102A2BDB10F0070F08D010F8A7
:10023000013B013A8B422DD010F0070F42B3F6D1AB
:10024000F0B441EA012141EA014122F007047FF0C4
:1002500000070023F0E80256083C85EA010586EA1B
:10026000010685FA47F5A3FA87F586FA47F6A5FA57
:1002700087F68EB9EED1F0BC01F0FF0102F0070263
:1002800032B110F8013B013A83EA010313B1F8D10E
:100290000020704701387047002D06BF35460338EF
:1002A000073815F0010F07D1013015F4807F02BF28
:1002B000013015F4C03F0130F0BC0138704700BF79
:1002C00081F0004102E000BF83F0004330B54FEA07
:1002D00041044FEA430594EA050F08BF90EA020F74
:1002E0001FBF54EA000C55EA020C7FEA645C7FEA07
:1002F000655C00F0E2804FEA5454D4EB5555B8BF2A
:100300006D420CDD2C4480EA020281EA030382EA9A
:10031000000083EA010180EA020281EA0303362D2C
:1003200088BF30BD11F0004F4FEA01314FF4801CFF
:100330004CEA113102D0404261EB410113F0004F11
:100340004FEA03334CEA133302D0524263EB4303C8
:1003500094EA050F00F0A780A4F10104D5F1200E66
:100360000DDB02FA0EFC22FA05F2801841F10001C1
:1003700003FA0EF2801843FA05F359410EE0A5F195
:1003800020050EF1200E012A03FA0EFC28BF4CF0C6
:10039000020C43FA05F3C01851EBE37101F000457C
:1003A00007D54FF0000EDCF1000C7EEB00006EEB89
:1003B0000101B1F5801F1BD3B1F5001F0CD3490813
:1003C0005FEA30004FEA3C0C04F101044FEA44526A
:1003D00012F5800F80F09A80BCF1004F08BF5FEAF1
:1003E000500C50F1000041EB045141EA050130BDD1
:1003F0005FEA4C0C404141EB0101013C28BFB1F5E3
:10040000801FE9D291F0000F04BF01460020B1FA2D
:1004100081F308BF2033A3F10B03B3F120020CDA00
:100420000C3208DD02F1140CC2F10C0201FA0CF0DE
:1004300021FA02F10CE002F11402D8BFC2F1200C43
:1004400001FA02F120FA0CFCDCBF41EA0C019040F9
:10045000E41AA2BF01EB0451294330BD6FEA040442
:100460001F3C1CDA0C340EDC04F11404C4F120022D
:1004700020FA04F001FA02F340EA030021FA04F33F
:1004800045EA030130BDC4F10C04C4F1200220FA96
:1004900002F001FA04F340EA0300294630BD21FAD4
:1004A00004F0294630BD94F0000F83F4801306BF9A
:1004B00081F480110134013D4EE77FEA645C18BF8E
:1004C0007FEA655C29D094EA050F08BF90EA020F25
:1004D00005D054EA000C04BF1946104630BD91EA1D
:1004E000030F1EBF0021002030BD5FEA545C05D120
:1004F0004000494128BF41F0004130BD14F580045F
:100500003CBF01F5801130BD01F0004545F0FE41D2
:1005100041F470014FF0000030BD7FEA645C1ABF07
:10052000194610467FEA655C1CBF0B46024650EA3E
:10053000013406BF52EA033591EA030F41F400216A
:1005400030BD00BF90F0000F04BF0021704730B5F0
:100550004FF4806404F132044FF000054FF00001C5
:1005600050E700BF90F0000F04BF0021704730B586
:100570004FF4806404F1320410F0004548BF40425B
:100580004FF000013EE700BF42004FEAE2014FEAB0
:1005900031014FEA02701FBF12F07F4393F07F4F8B
:1005A00081F06051704732F07F4208BF704793F08E
:1005B0007F4F04BF41F40021704730B54FF46074A1
:1005C00001F0004521F000411CE700BF50EA0102A4
:1005D00008BF704730B54FF000050AE050EA01024D
:1005E00008BF704730B511F0004502D5404261EBBD
:1005F00041014FF4806404F132045FEA915C3FF4FE
:10060000D8AE4FF003025FEADC0C18BF03325FEA9A
:10061000DC0C18BF033202EBDC02C2F1200300FA4B
:1006200003FC20FA02F001FA03FE40EA0E0021FA70
:1006300002F11444BDE600BF70B54FF0FF0C4CF45E
:10064000E06C1CEA11541DBF1CEA135594EA0C0F10
:1006500095EA0C0F00F0DEF82C4481EA030621EA4B
:100660004C5123EA4C5350EA013518BF52EA033586
:1006700041F4801143F4801338D0A0FB02CE4FF038
:100680000005E1FB02E506F00042E0FB03E54FF068
:100690000006E1FB03569CF0000F18BF4EF0010E60
:1006A000A4F1FF04B6F5007F64F5407404D25FEA5C
:1006B0004E0E6D4146EB060642EAC62141EA55510F
:1006C0004FEAC52040EA5E504FEACE2EB4F1FD0C51
:1006D00088BFBCF5E06F1ED8BEF1004F08BF5FEACF
:1006E000500E50F1000041EB045170BD06F0004681
:1006F00046EA010140EA020081EA0301B4EB5C042E
:10070000C2BFD4EB0C0541EA045170BD41F4801125
:100710004FF0000E013C00F3AB8014F1360FDEBF4A
:10072000002001F0004170BDC4F10004203C35DA26
:100730000C341BDC04F11404C4F1200500FA05F3A9
:1007400020FA04F001FA05F240EA020001F000424A
:1007500021F0004110EBD37021FA04F642EB0601C0
:100760005EEA430E08BF20EAD37070BDC4F10C04EA
:10077000C4F1200500FA04F320FA05F001FA04F2AE
:1007800040EA020001F0004110EBD37041F100019A
:100790005EEA430E08BF20EAD37070BDC4F12005A5
:1007A00000FA05F24EEA020E20FA04F301FA05F20D
:1007B00043EA020321FA04F001F0004121FA04F2B5
:1007C00020EA020000EBD3705EEA430E08BF20EA85
:1007D000D37070BD94F0000F0FD101F000464000BF
:1007E00041EB010111F4801F08BF013CF7D041EA41
:1007F000060195F0000F18BF704703F00046520045
:1008000043EB030313F4801F08BF013DF7D043EA15
:100810000603704794EA0C0F0CEA135518BF95EACB
:100820000C0F0CD050EA410618BF52EA4306D1D152
:1008300081EA030101F000414FF0000070BD50EA71
:10084000410606BF1046194652EA430619D094EAFB
:100850000C0F02D150EA013613D195EA0C0F05D1E5
:1008600052EA03361CBF104619460AD181EA030139
:1008700001F0004141F0FE4141F470014FF00000F1
:1008800070BD41F0FE4141F4780170BD70B54FF08C
:10089000FF0C4CF4E06C1CEA11541DBF1CEA13550C
:1008A00094EA0C0F95EA0C0F00F0A7F8A4EB0504EE
:1008B00081EA030E52EA03354FEA013100F08880E5
:1008C0004FEA03334FF0805545EA131343EA1263AE
:1008D0004FEA022245EA111545EA10654FEA002663
:1008E0000EF000419D4208BF964244F1FD0404F51C
:1008F000407402D25B084FEA3202B61A65EB030578
:100900005B084FEA32024FF480104FF4002CB6EB34
:10091000020E75EB030E22BFB61A754640EA0C00B4
:100920005B084FEA3202B6EB020E75EB030E22BFF4
:10093000B61A754640EA5C005B084FEA3202B6EB35
:10094000020E75EB030E22BFB61A754640EA9C00F4
:100950005B084FEA3202B6EB020E75EB030E22BFC4
:10096000B61A754640EADC0055EA060E18D04FEA82
:10097000051545EA16754FEA06164FEAC30343EA22
:1009800052734FEAC2025FEA1C1CC0D111F4801FEF
:100990000BD141EA00014FF000004FF0004CB6E7E8
:1009A00011F4801F04BF01430020B4F1FD0C88BF87
:1009B000BCF5E06F3FF6AFAEB5EB030C04BFB6EB92
:1009C000020C5FEA500C50F1000041EB045170BD85
:1009D0000EF0004E4EEA113114EB5C04C2BFD4EBB2
:1009E0000C0541EA045170BD41F480114FF0000E36
:1009F000013C90E645EA060E8DE60CEA135594EAB2
:100A00000C0F08BF95EA0C0F3FF43BAF94EA0C0FB4
:100A10000AD150EA01347FF434AF95EA0C0F7FF429
:100A200025AF104619462CE795EA0C0F06D152EA7D
:100A300003353FF4FDAE1046194622E750EA410661
:100A400018BF52EA43067FF4C5AE50EA41047FF472
:100A50000DAF52EA43057FF4EBAE12E74FF0FF3CD7
:100A600006E000BF4FF0010C02E000BF4FF0010CA8
:100A70004DF804CD4FEA410C7FEA6C5C4FEA430C21
:100A800018BF7FEA6C5C1BD001B050EA410C0CBF70
:100A900052EA430C91EA030F02BF90EA020F0020D2
:100AA000704710F1000F91EA030F58BF994208BF39
:100AB00090422CBFD8176FEAE37040F001007047F6
:100AC0004FEA410C7FEA6C5C02D150EA013C07D14D
:100AD0004FEA430C7FEA6C5CD6D152EA033CD3D098
:100AE0005DF8040B704700BF8446104662468C4692
:100AF0001946634600E000BF01B5FFF7B7FF0028C5
:100B000048BF10F1000F01BD4DF808EDFFF7F4FFED
:100B10000CBF012000205DF808FB00BF4DF808ED78
:100B2000FFF7EAFF34BF012000205DF808FB00BF9B
:100B30004DF808EDFFF7E0FF94BF012000205DF8BD
:100B400008FB00BF4DF808EDFFF7CEFF94BF012072
:100B500000205DF808FB00BF4DF808EDFFF7C4FF6B
:100B600034BF012000205DF808FB00BF4FEA4102BE
:100B700012F5001215D211D56FF47873B3EB6252EF
:100B800012D94FEAC12343F0004343EA505311F016
:100B9000004F23FA02F018BF404270474FF00000A8
:100BA000704750EA013005D111F0004008BF6FF0E6
:100BB000004070474FF00000704700BF4A0011D25C
:100BC00012F5001211D20DD56FF47873B3EB6252A7
:100BD0000ED44FEAC12343F0004343EA505323FAB3
:100BE00002F070474FF00000704750EA013002D128
:100BF0004FF0FF3070474FF00000704780B485B071
:100C000000AFF8607A601A460B467B8113463B8141
:100C10000D4AFB6813600C4A7B8993800B4A7B6802
:100C200013600A4A3B899380094ABB691360084AEA
:100C3000BB8B9380074A3B6A136000BF1437BD46E5
:100C40005DF8047B704700BF742A00207C2A0020D6
:100C5000842A0020702A002080B485B000AFF8609C
:100C60007A601A460B467B8113463B810B4AFB6830
:100C700013600A4A7B899380094A7B681360084A9B
:100C80003B899380074ABB691360064ABB8B9380FC
:100C900000BF1437BD465DF8047B70479C2A0020D6
:100CA0008C2A0020942A002080B582B000AF00F08A
:100CB00003FB454B1B685B68002B03D0424B1B6852
:100CC0005B689847404B1B689B68002B65D03F4B87
:100CD0001B781A463E4B1B7803339A4205DD3C4B8A
:100CE0001B780133DAB23A4B1A70384B1A78384B0A
:100CF0001B789A4205D2364B1B78013BDAB2344B53
:100D00001A7000237B6017E02F4B1B6899687A6884
:100D100013465B0013449B000B4498687B689BB2AE
:100D20002B4A12789B1A9AB22A4B1B78002100F0AA
:100D30009BFB7B6801337B60234B1B681B7B1A4644
:100D40007B689342E0DB214B1B781A46204B1B78D3
:100D5000D31A01339BB21A461201D31A9BB2063B37
:100D60009BB203221946062000F016FC184B1B7894
:100D7000002B04D003220021032000F09DFB124B26
:100D80001B681B7B1A46124B1B78D31A042B04DDFD
:100D900003223F21032000F0C7FB0B4B18680A4BCE
:100DA0001B689A68094B1B7819460B465B000B447D
:100DB0009B001344194600F0BBFE00F087FA00BF09
:100DC0000837BD4680BD00BF642A00205C2A002091
:100DD0005E2A00200008002080B582B000AF0346E4
:100DE000FB80304B9B88FA889A4201D100F032F99F
:100DF0002D4B9B88FA889A424FD12B4B1B682A4A6D
:100E000092881146184603F0A7FB0346012B1CD11C
:100E1000264B1B68254A92881146184603F09CFB16
:100E200003461A46224B1A70214B1B78002B0CD11B
:100E3000204B1B78012B08D11F4B1B78012B01D1B4
:100E400000F080F81C4B01221A70174B1B68164AE1
:100E500092881146184603F07FFB0346002B1CD1F5
:100E6000124B1B68114A92881146184603F074FB16
:100E700003461A460F4B1A700D4B1B78012B0CD1F1
:100E80000C4B1B78002B08D10B4B1B78002B01D18E
:100E900000F014F8084B00221A7000BF0837BD4656
:100EA00080BD00BF9C2A00208C2A0020942A0020AC
:100EB000602A0020612A0020622A002080B500AF4D
:100EC0001C4B01221A701C4B1B78002B09D01B4BAA
:100ED0001B78002B05D1184B1B78013BDAB2164B5F
:100EE0001A70164B1B78002B10D0154B1868144B3A
:100EF0001B689A68104B1B7819460B465B000B4425
:100F00009B001344194601F081FE0FE00C4B18685A
:100F10000B4B1B689A68084B1B7819460B465B0005
:100F20000B449B001344194600F00DFEFFF7BCFE76
:100F300000BF80BD5D2A00205C2A00205F2A0020BF
:100F4000642A002080B582B000AF214B00221A70C5
:100F5000204B1B681B7BFB71FB79013B1E4A1278FF
:100F6000934209DD1D4B1B78002B05D11A4B1B78D2
:100F70000133DAB2184B1A70184B1B78002B10D0C3
:100F8000144B1868134B1B689A68134B1B7819464F
:100F90000B465B000B449B001344194601F036FEE0
:100FA0000FE00C4B18680B4B1B689A680A4B1B78B8
:100FB00019460B465B000B449B001344194600F096
:100FC000C2FDFFF771FE00BF0837BD4680BD00BF00
:100FD0005D2A0020642A00205C2A00205F2A00206D
:100FE00080B582B000AF0346FB71174AFB791370DE
:100FF000164B1B78002B10D0154B1868144B1B6830
:101000009A68114B1B7819460B465B000B449B00FA
:101010001344194601F0FAFD0FE00D4B18680C4B14
:101020001B689A68084B1B7819460B465B000B44FB
:101030009B001344194600F086FDFFF735FE00BF04
:101040000837BD4680BD00BF5C2A00205F2A002013
:10105000642A002080B582B000AF154B1B689B68E6
:10106000002B21D0124B1B689A68124B1B78194633
:101070000B465B000B449B0013447B607B685B6802
:10108000002B08D07B685B68094A126879681046B3
:101090009847FFF709FE7B681B78002B04D07B681C
:1010A0001B78184600F082F800BF0837BD4680BDA7
:1010B000642A00205C2A002080B588B004AFF86064
:1010C0007A601A460B467B8113463B813A897989BF
:1010D0003B6A0293BB8B0193BB69009313467A680A
:1010E000F868FFF78BFD00F05FFD40214FF4807042
:1010F00000F02AFE054801F06FF900F0DDF800F07D
:10110000E5F800BF1037BD4680BD00BFC0880008AD
:1011100080B483B000AF78600B46FB70054A7B68F3
:101120001360054AFB78137000BF0C37BD465DF8AD
:10113000047B7047682A00206C2A002080B584B0A8
:1011400002AF78603960164801F046F90523009334
:101150001A234E227968134801F0E6F9052300931B
:1011600030234E2239680F4801F0DEF94023009306
:101170004023012203210C4800F046FA0A23009381
:101180003F23FF220021002000F0CCF800F09EF861
:101190004FF4FA6002F02CFF00BF0837BD4680BD57
:1011A000C08800085C0A00200000002080B584B0E0
:1011B00000AF0346FB710023FB601BE0134B1A6872
:1011C000FB681B0113441B78FA799A420FD1104B2C
:1011D00000221A700F4B00221A700C4B1A68FB6821
:1011E0001B0113440C4A1360FFF75EFD09E0FB6826
:1011F0000133FB60094B1B781A46FB689342DDDB29
:1012000000BF00BF1037BD4680BD00BF682A002068
:101210005C2A00205E2A0020642A00206C2A00201C
:1012200080B400AF034B1B781846BD465DF8047BC5
:10123000704700BF5D2A002080B400AF034B1B78CD
:101240001846BD465DF8047B704700BF5C2A00204D
:1012500080B400AF054B01221A70054B03221A70AF
:1012600000BFBD465DF8047B704700BF5F2A0020C9
:101270000008002080B400AF054B00221A70054B17
:101280000A221A7000BFBD465DF8047B704700BF9C
:101290005F2A00200008002080B500AF054B1B78B6
:1012A000002B02D0FFF7E6FF01E0FFF7D1FF00BF00
:1012B00080BD00BF5F2A002080B500AF002102483A
:1012C00000F05AFD00BF80BD5C0A002080B500AF71
:1012D00000220021024801F05BF900BF80BD00BF81
:1012E0005C0A002090B585B002AF0446084611465E
:1012F0001A462346FB800346BB800B467B80134681
:101300003B807888BA88F9883B7E01933B880093BC
:101310000346034800F04EFE00BF0C37BD4690BDAB
:101320005C0A002090B585B002AF0446084611461D
:101330001A462346FB800346BB800B467B80134640
:101340003B807888BA88F9883B7E01933B8800937C
:101350000346034800F0D8FE00BF0C37BD4690BDE1
:101360005C0A002090B585B002AF044608461146DD
:101370001A462346FB800346BB800B467B80134600
:101380007B707888BA88F9887B7800930346034895
:1013900000F0EFFE00BF0C37BD4690BD5C0A002098
:1013A00090B585B000AF0446084611461A4623465C
:1013B000FB800346BB800B467B8013467B707B889B
:1013C0005B42FB6028E07B885B42BB601DE0FB6802
:1013D00003FB03F2BB6803FB03F31A447B887988A1
:1013E00001FB03F39A420DDAFB689AB2FB881344BF
:1013F00099B2BB689AB2BB8813449AB27B780B4807
:1014000000F0EAFCBB680133BB607B88BA689A4293
:10141000DDDBFB680133FB607B88FA689A42D2DB34
:1014200000BF00BF1437BD4690BD00BF5C0A00205E
:1014300080B586B002AFF860084611461A460346EA
:101440007B810B463B811346FB7139897A89FB7995
:1014500000930B46F968034801F066F800BF1037A7
:10146000BD4680BD5C0A002080B584B000AFF86046
:10147000084611461A4603467B810B463B811346BC
:10148000FB710C4800F0A8FF7B891A461201D31AA1
:101490009BB20A3399B23B891A461201D31A9BB206
:1014A0000E339AB2FB79F868FFF7C2FF00BF10371E
:1014B000BD4680BDC088000890B585B002AF034628
:1014C000FB800B46BB801346FB70FB88023B98B247
:1014D000BB88053399B2FB8802339AB2BB880533C7
:1014E0009CB2FB7800932346FFF7FCFEFB88023397
:1014F00098B2BB88053399B2BC88FA88FB78009310
:101500002346FFF7EFFEFB88023B98B2BB8805330A
:1015100099B2BC88FA88FB7800932346FFF7E2FE75
:1015200000BF0C37BD4690BD90B585B002AF0346F5
:10153000FB800B46BB801346FB70FB88023B98B2D6
:10154000BB88053B99B2FB8802339AB2BB88053B46
:101550009CB2FB7800932346FFF7C4FEFB8802335E
:1015600098B2BB88053B99B2BC88FA88FB78009397
:101570002346FFF7B7FEFB88023B98B2BB88053BCA
:1015800099B2BC88FA88FB7800932346FFF7AAFE3D
:1015900000BF0C37BD4690BD90B585B002AF034685
:1015A000FB800B46BB801346FB70FB88053B98B263
:1015B000BB88023399B2FB88053B9AB2BB88023BD9
:1015C0009CB2FB7800932346FFF78CFEFB88053B1B
:1015D00098B2BB88023399B2BC88FA88FB78009332
:1015E0002346FFF77FFEFB88053B98B2BB88023B92
:1015F00099B2BC88FA88FB7800932346FFF772FE05
:1016000000BF0C37BD4690BD80B586B002AFF86014
:10161000084611461A4603467B810B463B8113461A
:10162000FB8039897A893B8B0193FB8800930B46B9
:10163000F968034800F07BFE00BF1037BD4680BD4F
:101640005C0A002090B587B002AF044608461146F8
:101650001A462346FB710346BB800B467B8013462C
:10166000BB71BB88DBB21A461201D31ADBB20A3354
:10167000FB737B880133DBB21A461201D31ADBB24B
:101680000B3BBB73FB7B98B2BB7B99B2FB7B9BB2E2
:101690000A339AB2BB7B9BB20A339CB2BB790093EC
:1016A0002346FFF73FFEFB79002B0CD0FB7B9BB260
:1016B000053398B2BB7B9BB2053399B2BB79042248
:1016C000FFF76EFE0BE0FB7B9BB2053398B2BB7B52
:1016D0009BB2053399B2BB790422FFF743FE00BFEA
:1016E0001437BD4690BDF0B591B002AFF860084622
:1016F00011461A4603467B810B463B811346FB800D
:101700007B89DBB21A461201D31ADBB20A3387F89F
:1017100027303B890133DBB21A461201D31ADBB200
:101720000B3B87F82630FA887B891344013BDBB2F8
:101730001A461201D31ADBB2143387F82530B7F8F2
:1017400050203B891344DBB21A461201D31ADBB294
:10175000013B87F8243097F8242097F82630D31AD5
:1017600087F8233097F8252097F82730D31A87F881
:101770002230FB68D3E90201FB68D3E90423FFF7B9
:10178000CDF90346002B36D097F8273098B297F85A
:10179000263099B297F825309AB297F824309CB247
:1017A00097F8543000932346FFF7BCFD97F8273095
:1017B00098B297F8263099B297F825309AB297F8F0
:1017C00024309CB297F8543000932346FFF78AFDEB
:1017D00097F8273098B297F8243099B297F82530C7
:1017E0009AB297F826309CB297F85430009323466B
:1017F000FFF778FD99E14FF000024FF00003C7E9D1
:101800000C23FB68D3E902014FF000024FF0000304
:10181000FFF78EF90346002B12D0FB68D3E90423AF
:1018200010461946FFF7A2F90346002BB8BF5B42EA
:101830001846FEF797FE02460B46C7E90C231EE04A
:10184000FB68D3E9022310461946FFF78FF90346D8
:1018500083EAE374A4EBE374FB68D3E90423104642
:101860001946FFF783F90346002BB8BF5B422344B8
:101870001846FEF777FE02460B46C7E90C23002305
:1018800087F82F30FB68D3E904014FF000024FF0D6
:101890000003FFF743F90346002B29D097F82330C4
:1018A0001846FEF75FFED7E90C23FEF7EFFF02466E
:1018B0000B4614461D46FB68D3E90423104619461F
:1018C000FFF754F90346002BB8BF5B421846FEF7FA
:1018D00049FE02460B4620462946FEF7ADFE02466B
:1018E0000B4610461946FFF769F9034687F82F3073
:1018F00097F8273098B297F826309BB2023B9BB2FC
:1019000097F854201946FFF7D7FD97F8273098B27B
:1019100097F826309BB2033399B297F827309AB2E2
:1019200097F824309CB297F8543000932346FFF781
:10193000D9FC97F825309BB2023398B297F824303F
:101940009AB297F82F309BB2D31A9BB297F85420D3
:101950001946FFF721FE97F8273098B297F8243000
:101960009AB297F82F309BB2D31A99B297F82530D4
:101970009BB2033B9CB297F824309AB297F82F3071
:101980009BB2D31A9AB297F854300093134622466A
:10199000FFF7A8FC0023BB62BBE0FB681A68BB6AC8
:1019A000DB001344D3E90001FB68D3E90223FFF70E
:1019B000D3F80346002B40F0A680FB681A68BB6A88
:1019C000DB001344D3E90001FB68D3E90423FFF7EC
:1019D000A5F80346002B40F09680FB681A68BB6AA6
:1019E0000133DB001344D3E90001FB68D3E9022390
:1019F000FFF7B2F80346002B40F08780FB681A68B7
:101A0000BB6A0133DB001344D3E90001FB68D3E96F
:101A10000423FFF783F80346002B76D197F8233091
:101A20001846FEF79FFDD7E90C23FEF72FFF02466D
:101A30000B4610461946FB681A68BB6ADB00134464
:101A4000D3E90023FEF7F8FD02460B46C7E906235B
:101A500097F823301846FEF785FDD7E90C23FEF7EB
:101A600015FF02460B4610461946FB681A68BB6A0A
:101A70000133DB001344D3E90023FEF7DDFD02460A
:101A80000B46C7E9042397F827309AB2BB6A9BB28A
:101A900013449CB297F8242097F82F30D31A184695
:101AA000FEF760FDD7E90623FEF70EFC02460B4663
:101AB00010461946FFF782F803469DB297F8273083
:101AC0009AB2BB6A9BB213449BB201339EB297F8A1
:101AD000242097F82F30D31A1846FEF743FDD7E994
:101AE0000423FEF7F1FB02460B4610461946FFF7AA
:101AF00065F803469BB203220092324629462046EF
:101B0000FFF7F0FB02E000BF00E000BFBB6A01335B
:101B1000BB62FB689B88013BBA6A9A4205DA97F878
:101B20002230BA6A9A42FFF638AF3C37BD46F0BD64
:101B300080B483B000AF7860396000BF0C37BD4619
:101B40005DF8047B704780B483B000AF7860396083
:101B500000BF0C37BD465DF8047B704780B582B08E
:101B600000AF0346FB7100F031FD00F04BFDFB7947
:101B7000184600F07FFD00F037FD00BF0837BD4676
:101B800080BD80B582B000AF0346FB7100F01EFD42
:101B900000F046FDFB79184600F06CFD00F024FDD6
:101BA00000BF0837BD4680BD80B500AF00F046FDE0
:101BB000012000F085FD00F04FFD322000F080FD97
:101BC000FD20FFF7CBFF1220FFF7DBFFAE20FFF772
:101BD000C5FFB320FFF7C2FF9120FFF7D2FFCA2055
:101BE000FFF7BCFF3F20FFF7CCFFA220FFF7B6FFB7
:101BF0000020FFF7C6FFA120FFF7B0FF0020FFF78E
:101C0000C0FFA020FFF7AAFF1420FFF7BAFF1120A2
:101C1000FFF7B7FFB520FFF7A1FF0020FFF7B1FFE7
:101C2000AB20FFF79BFF0120FFF7ABFFB420FFF7CE
:101C300095FFA020FFF7A5FFFD20FFF7A2FFC12021
:101C4000FFF78CFFFF20FFF79CFFC720FFF786FF01
:101C50000F20FFF796FFB920FFF780FFB120FFF7B5
:101C60007DFFE220FFF78DFFD120FFF777FF822075
:101C7000FFF787FF2020FFF784FFBB20FFF76EFFF1
:101C80001F20FFF77EFFB620FFF768FF0820FFF751
:101C900078FFBE20FFF762FF0720FFF772FFA62044
:101CA000FFF75CFFA920FFF759FF0A2000F008FDAD
:101CB000AF20FFF753FF322000F002FD00BF80BDD0
:101CC00090B583B000AF0446084611461A46234635
:101CD000FB710346BB710B467B7113463B711520AC
:101CE000FFF73CFFFB791C33DBB21846FFF749FFD7
:101CF000BB791C33DBB21846FFF743FF7520FFF7B3
:101D00002DFF7B791846FFF73CFF3B791846FFF71C
:101D100038FF00BF0C37BD4690BD80B582B000AF24
:101D2000786039605C20FFF719FF00F04FFC00F08D
:101D300077FC3968786800F0AFFC00F055FC00BF14
:101D40000837BD4680BD000080B483B000AF0346B5
:101D50000A46FB801346BB80054AFB881380054A70
:101D6000BB88138000BF0C37BD465DF8047B70470D
:101D7000040800200208002080B485B000AF78601D
:101D80000B46FB7097F903301B015AB297F90330E9
:101D900013435BB2FB720E4B1B881A460D4B1B881C
:101DA00002FB03F3DA0F13445B10FB6004E07B6873
:101DB0005A1C7A60FA7A1A70FB685A1EFA60002B75
:101DC000F5D100BF00BF1437BD465DF8047B7047F6
:101DD000020800200408002080B485B000AFF8603D
:101DE000084611461A4603467B810B463B81134643
:101DF000FB71364B1B887A899A4260D2344B1B8820
:101E00003A899A425BD23B89304A128803FB02F23C
:101E10007B891344002B03F00103B8BF5B42012B05
:101E200025D13B89294A128803FB02F27B8913449E
:101E3000DA0F13445B101A46FB6813441B785BB23D
:101E400023F00F035AB297F90730134359B23B8975
:101E50001E4A128803FB02F27B891344DA0F1344F3
:101E60005B101A46FB681344CAB21A7028E03B891B
:101E7000164A128803FB02F27B891344DA0F1344DB
:101E80005B101A46FB6813441B785BB203F00F0328
:101E90005AB297F907301B015BB2134359B23B8921
:101EA0000A4A128803FB02F27B891344DA0F1344B7
:101EB0005B101A46FB681344CAB21A7000E000BFF8
:101EC0001437BD465DF8047B704700BF040800204E
:101ED0000208002080B586B000AFF86008461146C1
:101EE0001A4603467B810B463B811346FB803A89A9
:101EF000FB889A4211D23B89FB8209E097F8203097
:101F0000FA8A7989F868FFF767FFFB8A0133FB8259
:101F1000FA8AFB889A42F1D910E0FB88BB8209E07B
:101F200097F82030BA8A7989F868FFF755FFBB8A9D
:101F30000133BB82BA8A3B899A42F1D900BF183774
:101F4000BD4680BD80B586B000AFF860084611463A
:101F50001A4603467B810B463B811346FB803A8938
:101F6000FB889A4211D23B89FB8209E097F8203026
:101F70007A89F98AF868FFF72FFFFB8A0133FB8221
:101F8000FA8AFB889A42F1D910E0FB88BB8209E00B
:101F900097F820307A89B98AF868FFF71DFFBB8A65
:101FA0000133BB82BA8A3B899A42F1D900BF183704
:101FB000BD4680BD80B58AB002AFF86008461146C4
:101FC0001A4603467B810B463B811346FB807A8988
:101FD000FB889A4209D1388D3A89798997F82C3053
:101FE00000930346F868FFF775FF3A893B8D9A42E4
:101FF00009D1F8887A89398997F82C3000930346FB
:10200000F868FFF79FFF3A8D3B89D31A83EAE372A2
:10201000A2EBE372F9887B89CB1A002BB8BF5B4235
:102020009A42CCBF01230023DBB27B83B7F91A307D
:10203000012B0BD13B893B837B893B813B8B7B8194
:102040003B8D3B83FB883B853B8BFB807A89FB8800
:102050009A420BD97B89FB82FB887B81FB8AFB80C0
:102060003B89FB823B8D3B81FB8A3B85FA887B89E0
:10207000D31A9BB2BB823A8D3B89D31A002BB8BFCF
:102080005B427B82B7F91430DA0F13445B10FB8399
:102090003A893B8D9A4202D20123BB832BE04FF653
:1020A000FF73BB8327E0B7F91A30002B07D097F8EE
:1020B0002C307A893989F868FFF78EFE06E097F8A8
:1020C0002C303A897989F868FFF786FEFA8B7B8A8B
:1020D000D31A9BB2FB83B7F91E30002B08DABA8BF8
:1020E0003B8913443B81FA8BBB8A13449BB2FB832D
:1020F0007B8901337B817A89FB889A42D3D900BFDF
:1021000000BF2037BD4680BD80B586B002AFF86005
:10211000084611461A4603467B810B463B8113460F
:10212000FB80388B3A8979893B7F00930346F868B6
:10213000FFF7D0FE388B3A89F9883B7F009303463E
:10214000F868FFF7C7FEF8887A8939893B7F0093E2
:102150000346F868FFF7F6FEF8887A89398B3B7FEB
:1021600000930346F868FFF7EDFE00BF1037BD4649
:1021700080BD80B588B000AFF860084611461A46A9
:1021800003467B810B463B811346FB80FB88C3F1F2
:1021900001039BB2FB830123BB83FB881A46D20356
:1021A000D31A5B009BB27B8300233B83FB88FB82BB
:1021B0003A89FB8813449AB297F828307989F868ED
:1021C000FFF70AFE3A89FB88D31A9AB297F82830AB
:1021D0007989F868FFF700FE7A89FB88134499B281
:1021E00097F828303A89F868FFF7F6FD7A89FB8876
:1021F000D31A99B297F828303A89F868FFF7ECFDBE
:1022000089E0B7F91E30002B0EDBB7F916309BB210
:10221000013B9BB2FB827B8B02339BB27B83FA8BAD
:102220007B8B13449BB2FB83B7F918309BB201330D
:102230009BB23B83BB8B02339BB2BB83FA8BBB8BC2
:1022400013449BB2FB833A8B7B89134499B2FA8A7D
:102250003B8913449AB297F82830F868FFF7BCFD21
:102260003B8B7A89D31A99B2FA8A3B8913449AB282
:1022700097F82830F868FFF7AFFD3A8B7B89134455
:1022800099B2FB8A3A89D31A9AB297F82830F8683B
:10229000FFF7A2FD3B8B7A89D31A99B2FB8A3A8960
:1022A000D31A9AB297F82830F868FFF795FDFA8AA2
:1022B0007B89134499B23A8B3B8913449AB297F8BD
:1022C0002830F868FFF788FDFB8A7A89D31A99B21B
:1022D0003A8B3B8913449AB297F82830F868FFF795
:1022E0007BFDFA8A7B89134499B23B8B3A89D31AD6
:1022F0009AB297F82830F868FFF76EFDFB8A7A8962
:10230000D31A99B23B8B3A89D31A9AB297F82830EC
:10231000F868FFF761FDB7F91820B7F916309A424F
:10232000FFF66FAF00BF00BF2037BD4680BD80B550
:1023300088B000AFF860B96011461A460B46FB80C2
:102340001346BB800023FB830023BB830023FB7564
:10235000BB887B8334E0FB883B8328E0BB8BDBB20C
:1023600003F00103FB75FB7D002B0ED1FB8BBA68DC
:1023700013441B781B09DBB27A8B398BF868FFF7A3
:102380002BFDBB8B0133BB830EE0FB8BBA68134480
:102390001B787A8B398BF868FFF71EFDBB8B0133F6
:1023A000BB83FB8B0133FB833B8B01333B833A8B3A
:1023B000F9883B8D0B449A42D0DB7B8B01337B83C6
:1023C0007A8BB988BB8D0B449A42C4DB00BF00BF37
:1023D0002037BD4680BD000080B483B000AF786078
:1023E000044A7B68136000BF0C37BD465DF8047B70
:1023F000704700BFA42A002080B58AB000AFF86003
:10240000084611461A460346FB720B463B811346AB
:10241000FB80444B1B68002B7FD0424B1B681B8901
:10242000DBB2FA7AD31AFB723E4B1B685A68FB7A0E
:10243000DB001344FB613B4B1B681B68BB61FB6902
:102440001B88FB84FB699B78FB75FB69DB78BB759C
:10245000FB695B797B75FB699B793B75002387F88A
:102460002530002387F82430002387F82330002309
:1024700087F82230002387F8233048E0002387F8CC
:1024800022303AE097F825305A1C87F8252003F0CF
:102490000703002B08D1FB8C5A1CFA841A46BB692F
:1024A00013441B7887F8243097F92430002B1ADA6C
:1024B00097F915309AB23B8913449AB297F82230B3
:1024C0009BB2134499B297F914309AB2FB88134423
:1024D0009AB297F823309BB213449AB297F83030EF
:1024E000F868FFF779FC97F824305B0087F8243010
:1024F00097F82230013387F8223097F82220FB7DAD
:102500009A42BFD397F82330013387F8233097F8E6
:102510002320BB7D9A42B1D300E000BF2837BD46DF
:1025200080BD00BFA42A002080B586B002AFF8604D
:10253000B96011461A460B46FB801346BB801BE070
:10254000BB681978B888FA883B7E00930346F86820
:10255000FFF752FF0D4B1B685A68BB681B7803F1ED
:102560000053203BDB0013441B791A46FB881344BD
:10257000FB80BB680133BB60BB681B78002BDFD1DD
:1025800000BF00BF1037BD4680BD00BFA42A002099
:1025900080B582B000AF78600B467B8013463B80ED
:1025A0007F2300223F210020FFF78AFB3B88DB01CD
:1025B0001A467B8813447A6813444FF40051184636
:1025C000FFF7ABFB00BF0837BD4680BD80B500AF4D
:1025D000044B1B68034A91880022184601F0D4FF7F
:1025E00000BF80BD742A002080B500AF044B1B687B
:1025F000034A91880122184601F0C6FF00BF80BD42
:10260000742A002080B500AF044B1B68034A9188F0
:102610000022184601F0B8FF00BF80BD7C2A0020D0
:1026200080B500AF044B1B68034A9188012218460D
:1026300001F0AAFF00BF80BD7C2A002080B500AF5A
:10264000044B1B68034A91880022184601F09CFF46
:1026500000BF80BD842A002080B500AF044B1B68FA
:10266000034A91880122184601F08EFF00BF80BD09
:10267000842A002080B582B000AF0346FB71054B71
:102680001868F91D0A23012203F08FFE00BF0837E6
:10269000BD4680BD702A002080B582B000AF786052
:1026A0003960064B18683B689AB26423796803F076
:1026B0007CFE00BF0837BD4680BD00BF702A0020E9
:1026C00080B582B000AF7860786801F091FC00BFFF
:1026D0000837BD4680BD80B500AF01224FF4805160
:1026E0004FF0904001F050FF00BF80BD80B500AFBB
:1026F00000224FF480514FF0904001F045FF00BFA1
:1027000080BD000080B500AF00224FF48061024818
:1027100001F03AFF00BF80BD0008004880B500AF5F
:1027200001224FF48061024801F02EFF00BF80BDFE
:102730000008004880B400AF064BD3E9002343EC07
:10274000172BB0EE470AF0EE670ABD465DF8047B32
:10275000704700BFE82E002080B582B000AF03466E
:10276000FB710C4B1B78FA799A420DD1094B1A7800
:10277000094B1B789A4207D0064B1A78064B1A7001
:10278000FEF792FA012300E0002318460837BD4601
:1027900080BD00BFF32E0020F22E002080B483B055
:1027A00000AF78603960084B1B68002B0CBF012319
:1027B0000023DBB21A46044B1A6000BF0C37BD463B
:1027C0005DF8047B704700BFF42E002080B400AF9A
:1027D00000BFBD465DF8047B70470000B0B58EB009
:1027E00002AF594BD3E900014FF00002574BFEF7FF
:1027F0004DF802460B4610461946FEF7B7F9034658
:10280000FB62514BD3E90045F86AFDF7ABFE4FF090
:1028100000024E4BFDF710FF02460B4620462946AC
:10282000FDF752FD02460B4610461946FEF79EF98B
:102830000346BB62FB6A002B01DA0023FB62BB6A22
:10284000002B01DA0023BB62BB6A632B05DD3B462C
:10285000BA6A3F49184604F0FDFFBB6A632B06DCE9
:102860003B46BA6A3B49184604F0F4FF11E0BB6AE4
:10287000092B06DC3B46BA6A3749184604F0EAFFE2
:1028800007E0BB6A002B04DC3B463449184604F0E1
:10289000E1FF3B4607F11000FA6A314904F0DAFF24
:1028A00007F11000052300220821FEF7DDFD2D4B66
:1028B0001B785A1CD1B22B4A11702B4AA2FB03126F
:1028C0005209642101FB02F29B1ADBB21C46F86A32
:1028D000FDF748FE02460B462448E1000144C1E9E9
:1028E0000023234B1B78002B06D105230022052152
:1028F0002048FEF7B9FD18E01F4B1B8819461F4BF7
:102900001B881F4A82FB03025211DB179B1ACA184D
:1029100007F110031B49184604F09CFF07F1100053
:10292000052300220521FEF79FFD052301930323C4
:1029300000930823012205211348FEF7D4FE00BFAF
:102940003037BD46B0BD00BFE02E002000408F40B4
:10295000988200089C820008A0820008A8820008D3
:10296000AC820008D82E00201F85EB51B82B002028
:10297000D92E0020B882000806080020AE2B0020C7
:10298000D34D6210C08200081008002080B584B0CA
:1029900000AF264B1B881A463B462549184604F0D3
:1029A00059FF3846052300220821FEF75DFD214B23
:1029B0001B881A463B462049184604F04BFF384610
:1029C000052301220821FEF74FFD1C4B1B881A46E8
:1029D0003B461949184604F03DFF384605230222BC
:1029E0000821FEF741FD164B1B68002B06D005237E
:1029F000032208211348FEF737FD05E005230322D3
:102A000008211148FEF730FD104B1B881A463B4643
:102A10000F49184604F01EFF3846052300220C21FA
:102A2000FEF722FD00BF1037BD4680BD060800201E
:102A3000C882000808080020D08200080A08002088
:102A4000F42E0020D8820008DC820008AC2B002085
:102A5000E482000880B584B000AF4FF48061344850
:102A600001F07AFD0346002B0CBF01230023DBB2EB
:102A70001846052300220821FEF7E4FD0523002265
:102A800009212C48FEF7F0FC4FF48061284801F042
:102A900063FD03461846052300220B21FEF7D2FDF5
:102AA000052300220C212448FEF7DEFC4FF4806150
:102AB000224801F051FD0346002B0CBF01230023E7
:102AC000DBB21846052302220721FEF7BBFD1C4B93
:102AD0005A683B461B49184604F0BCFE384605239D
:102AE00001220821FEF7C0FC174B5A683B461549E6
:102AF000184604F0AFFE3846052302220821FEF7EF
:102B0000B3FC4FF480514FF0904001F025FD034697
:102B10001846052303220821FEF794FD052303220E
:102B200009210A48FEF7A0FC00BF1037BD4680BD52
:102B300000080048EC820008F08200080004004809
:102B40002C0800209882000844080020F482000825
:102B500080B400AF044B42F210725A6000BFBD4611
:102B60005DF8047B704700BF4408002080B582B048
:102B700000AF786039604FF48061034801F01CFDBC
:102B800000BF0837BD4680BD0008004880B582B050
:102B900000AF786039604FF480514FF0904001F001
:102BA0000BFD00BF0837BD4680BD000080B483B078
:102BB00000AF786039600C4B1B78002B0CBF0123F1
:102BC0000023DBB21A46084B1A70074B1B78002B08
:102BD00004D0064B5B68DAB2054B1A7000BF0C37A5
:102BE000BD465DF8047B7047D92E00202C080020DC
:102BF000F82E002080B582B000AF78603960FEF713
:102C00004BFB00BF0837BD4680BD000080B582B0D9
:102C100000AF786039607B681B78022B69D1FEF7C2
:102C20000BFB0346052B64D801A252F823F000BF2A
:102C3000492C00086B2C00088D2C0008F32C000890
:102C4000D12C0008AF2C0008FEF7EAFA0346002B4F
:102C500004D0524B1B8801339BB203E04F4B1B88BF
:102C6000013B9BB24D4A138043E0FEF7D9FA03467D
:102C7000002B04D04A4B1B8864339BB203E0484BC3
:102C80001B88643B9BB2464A138032E0FEF7C8FAC9
:102C90000346002B04D0434B1B8805339BB203E053
:102CA000404B1B88053B9BB23E4A138021E0FEF758
:102CB000B7FA0346002B04D03B4B1B8801339BB271
:102CC00003E0394B1B88013B9BB2374A138010E06D
:102CD000FEF7A6FA0346002B04D0344B1B880A33B8
:102CE0009BB203E0314B1B880A3B9BB22F4A1380F7
:102CF00000BF7B681B78032B29D1FEF79DFA0346A2
:102D0000022B0FD1FEF78CFA0346002B05D0284B7F
:102D10005B686433264A536004E0254B5B68643B80
:102D2000234A5360FEF788FA0346032B0FD1FEF7C0
:102D300077FA0346002B05D01E4B5B680A331D4A09
:102D4000536004E01B4B5B680A3B1A4A53607B6884
:102D50001B78012B1ED1FEF76FFA0346012B19D108
:102D6000FEF75EFA0346002B0AD0134B1B78FF2BAD
:102D700010D0114B1B780F33DAB20F4B1A7009E0E9
:102D80000D4B1B78002B05D00B4B1B780F3BDAB299
:102D9000094B1A7000BF0837BD4680BD06080020E9
:102DA000080800200A0800200C080020AC2B002096
:102DB0002C080020440800202808002080B582B09C
:102DC00000AF78607B681A687B685B689A424DD078
:102DD0007B681A687B685B689A421FDA7B68986830
:102DE0007B689B890022194601F0CEFB7B681B683B
:102DF0005A1C7B681A604FF480611E4801F0ACFBDE
:102E00000346002B20D17B681B4A93421CD11A4BEE
:102E100000221A60184B00225A6015E07B68164A9F
:102E2000934204D17B681B6813F5166F1DDD7B6828
:102E300098687B689B890122194601F0A5FB7B6895
:102E40001B685A1E7B681A607B6818697B689B8ABE
:102E50000122194601F098FB7B6818697B689B8A00
:102E60000022194601F090FB00E000BF0837BD4684
:102E700080BD00BF000400484408002080B582B037
:102E800000AF78607B68314A93425BD1304B1B883E
:102E900001339AB22E4B1A802E4B1B78082B05D18A
:102EA0002D4B1B8801339AB22B4B1A802B4B1B885E
:102EB00001339AB2294B1A80284B1B88F92B17D95A
:102EC0004FF480514FF0904001F046FB0346002B39
:102ED0000ED0204B1B78082B03D01E4B1B78012BE8
:102EE00003D100F035F9FDF7DFFE1C4B00221A80FC
:102EF0001B4B1B78002B0FD0164B1B78082B0BD1CC
:102F0000184B1B8801339AB2164B1A80164B1B883C
:102F100001339AB2144B1A800E4B1B78092B0BD13C
:102F2000124B1A68124B1B689A4205D1114B1B8831
:102F300001339AB20F4B1A800F48FFF73FFF0B483F
:102F4000FFF73CFF00BF0837BD4680BD602B002067
:102F5000FC2E0020F22E00205C080020FA2E00201B
:102F6000D92E0020AE2B0020B02B002044080020DA
:102F7000B42B0020B22B00202C08002080B400AF1E
:102F8000064B1B68064A9342B4BF01230023DBB201
:102F90001846BD465DF8047B704700BF440800201A
:102FA000A1F6FFFF000000002DE9F84300AF1A4B27
:102FB0001B681846FDF7D6FA04460D46174B1B68EA
:102FC0001846FDF7CFFA80468946154B1B68184610
:102FD000FDF7C8FA0EA3D3E90023FDF757FC02461C
:102FE0000B4640464946FDF771F902460B46012162
:102FF0000E4620462946FDF7A5FD0346002B01D1CC
:1030000000231E46F3B21846BDE8F883AFF30080F4
:10301000E09C11A5BDC1973F2C080020002F002087
:10302000E009002080B582B000AF0346FB800F4B63
:103030009B88FA889A420BD10D4B1B880A2B07D923
:10304000FB881846FDF7C8FE094B00221A8008E0ED
:10305000064B9B88FA889A4203D0FB881846FDF7F6
:10306000BBFE00BF0837BD4680BD00BF9C2A0020C4
:10307000FC2E00200000000080B58CB004AF2BA314
:10308000D3E90023C7E906232AA3D3E90023C7E92C
:1030900004232AA3D3E90023D7E90401FDF7F6FBB3
:1030A00002460B46C7E90223D7E90623D7E9020106
:1030B000FDF7C2FA02460B4622A1D1E90001FDF755
:1030C000E5FB02460B4610461946FDF777FD034621
:1030D000FB80FB881B0A9BB2DBB23B71FB88DBB237
:1030E0007B714FF0FF330293022301933B1D00934A
:1030F0000123052280210C4801F02CFB49F60173C5
:103100003B804FF0FF330293022301933B46009331
:10311000012300228021044801F01CFB00BF20375E
:10312000BD4680BDAFF30080A82A00207B14AE47C7
:10313000E17AC43F333333333333D33F00000000ED
:10314000C0FFDF40F168E388B5F8A43F000000004D
:1031500080B58EB004AF4FF0FF330293022301938A
:103160003B1D00930123042280212D4801F006FC21
:103170003B791BB21B021AB27B791BB21343FB844F
:103180003A79284B1A707A79264B5A701EA3D3E9E4
:103190000023C7E906231EA3D3E90023D7E90601CC
:1031A000FDF774FB02460B46C7E90423B7F9263046
:1031B0001846FDF7D7F902460B46D7E90401FDF79B
:1031C0003BFA02460B46C7E9022313A3D3E90023C7
:1031D000D7E90201FDF730FA02460B461249C1E970
:1031E0000023114BD3E900014FF000020F4BFDF714
:1031F0004DFB02460B460E49C1E9002300BF2837AC
:10320000BD4680BDAFF30080333333333333D33F18
:1032100000000000C0FFDF400000000080842E415D
:10322000A82A0020F02E0020E02E002000408F4031
:10323000E82E0020000000002DE9B04384B004AF68
:1032400000F065FE00F0CCFA00F0DEFB00F048FB79
:1032500000F084FB00F004FB01224021A84801F0AB
:1032600093F9A84803F07CFBA74B02930123019339
:103270004FF09043009302234FF0904210214FF003
:103280009040FDF719FF0421A048FDF741FF4FF4DE
:10329000007301934FF0904300934FF480734FF00D
:1032A000904280214FF09040FDF7D6FC9849994814
:1032B000FDF744FFFFF7E0FE0120FDF777FF002256
:1032C00040214FF0904001F05FF90120FDF788FEAA
:1032D000914B1B78002B01D0FFF73AFF8F4B1B78E7
:1032E000013B082B00F2428201A252F823F000BFFA
:1032F000153300085B330008B733000813340008A7
:10330000D33400083935000891350008FB35000832
:10331000293700080120FFF71FFA0346002B0FD0C2
:10332000FFF7E4F9FFF7EEF9FFF712FC7C4B002200
:103330001A80794B00221A707A4B1B687A4A5360C4
:10334000754B1B78002B00F01782744B02221A7009
:10335000754B1B68734A13600EE20220FFF7FCF9FD
:103360000346002B03D0FFF7CDF9FFF7B4F9FFF7C1
:10337000E1F951EC100B6D4BD3E90023FDF7ECFBA9
:103380000346002B02D0654B04221A70FFF7F6FDAE
:103390000346002B02D0614B03221A70644B1A685B
:1033A000634B5B689A4240F0E981614B5B68013B8B
:1033B0005F4A5360E2E10320FFF7CEF90346002B9A
:1033C00003D0FFF79FF9FFF786F9574B1A68564B62
:1033D0005B689A4204D1544B5B680133524A536094
:1033E000FFF7A8F951EC100B504BD3E90023FDF780
:1033F000B3FB0346002B02D0484B04221A70FFF7A0
:10340000D3FD0346002B00F0BB81444B01221A7010
:10341000B6E10420FFF7A0F90346002B25D0FFF703
:1034200071F9FFF763F9404B5B681846FDF79AF8AE
:1034300004460D463F4B1B8803F5FA731846FDF70B
:1034400091F82DA3D3E90023FDF720FA02460B469D
:1034500020462946FCF73AFF02460B46104619461D
:10346000FDF784FB0346304A5360FFF79DFD03469A
:10347000002B02D0294B01221A702B4B1B681846D7
:10348000FDF770F804460D46264B1B681846FDF7FD
:1034900069F880468946274B1B881846FDF752F885
:1034A00015A3D3E90023FDF7F1F902460B46404688
:1034B0004946FCF70BFF02460B4620462946FDF71E
:1034C00041FB0346002B00D163E1144B05221A7027
:1034D0005FE10520FFF740F90346002B03D0FFF71B
:1034E00005F9FFF735FB124B1B68002B40F04A81B2
:1034F0000A4B06221A7045E13333333333333740F6
:1035000000080048602B0020FC2A0020A0090020B1
:103510000083000810830008D92E0020F32E00201D
:10352000AE2B0020002F00202C0800206008002077
:1035300044080020080800200620FFF70DF9034684
:10354000002B03D0FFF7DEF8FFF7C5F8FFF7F2F81E
:1035500051EC100B934BD3E90023FDF7FDFA034622
:10356000002B02D0904B07221A70904B1A688F4B99
:103570005B689A4240F00881FFF700FD0346002B8C
:1035800040F00281894B5B68013B884A5360FBE055
:103590000720FFF7E1F80346002B23D0FFF7B2F82E
:1035A000FFF7A4F8814B1B681846FCF7DBFF0446C5
:1035B0000D467F4B1B881846FCF7C4FF4FF00002F6
:1035C0007C4BFDF763F902460B4620462946FCF783
:1035D0007BFE02460B4610461946FDF7C7FA034626
:1035E000724A5360714B1A68704B5B689A4240F0A4
:1035F000CD806D4B08221A70C8E00820FFF7ACF8A8
:103600000346002B0ED06C4B1B68002B02D0FFF73B
:1036100079F801E0FFF782F8FFF75DF8634B1B686C
:10362000664A1360664B1B885B001846FCF79AFFDE
:1036300004460D46634B1B881846FCF783FF804603
:1036400089465B4B1B881846FCF78CFF02460B46ED
:1036500040464946FDF71AF902460B469046994600
:10366000594B1B881846FCF77DFF4FF00002574B63
:10367000FCF7E2FF02460B4640464946FCF7DCFFFA
:1036800002460B4620462946FDF75CFA0346002B0E
:1036900022D04B4B00221A80444B5B681846FCF743
:1036A00061FF04460D46474B1B881846FCF74AFF4E
:1036B0004FF000023F4BFDF7E9F802460B4620466B
:1036C0002946FCF703FE02460B4610461946FDF755
:1036D0004DFA0346354A53603D4B1B885B00184644
:1036E000FCF740FF04460D46374B1B881846FCF795
:1036F00039FF4FF00002354BFCF79EFF02460B46A8
:1037000020462946FDF71EFA0346002B00D140E073
:10371000304B1B88002B03D0234B09221A7038E052
:10372000214B01221A7034E00920FFF715F80346F7
:10373000002B05D0214B1B681C4A5360FEF7D6FFB7
:103740001A4B1A681D4B1B689A4221D1224B1B88C9
:103750005B00204A1288934203DB134B01221A704C
:1037600016E0FEF7DBFFFEF7B6FF11E0FDF79CFA6F
:103770000D4B01221A700CE000BF0AE000BF08E008
:1037800000BF06E000BF04E000BF02E000BF00E0B1
:1037900000BF124B1B78002B7FF49AAD024B012225
:1037A0001A7095E560080020F32E002044080020E0
:1037B0000808002000001440F42E0020B42B002044
:1037C000B02B00200A0800200608002000408F408F
:1037D000AE2B0020AC2B0020B22B0020D92E0020D5
:1037E00080B594B000AF07F11803382200211846C5
:1037F00004F052F83B1D00221A605A609A60DA60A9
:103800001A614FF4007001F02DFD0223BB614FF4EB
:1038100080737B624023BB6200237B6307F1180344
:10382000184601F0D3FD0346002B01D000F0B2F999
:103830000F237B600123BB600023FB6000233B61FF
:1038400000237B613B1D0021184602F0D1F803469E
:10385000002B01D000F09EF900BF5037BD4680BD5F
:1038600080B500AF1B4B1C4A1A601A4B1B4A5A60AA
:10387000184B00229A60174B0122DA60154B002288
:103880001A61144B00225A61124B00229A61114BAB
:103890000022DA610F4B00221A620E4800F0BEFED1
:1038A0000346002B01D000F075F90021094801F012
:1038B00041FC0346002B01D000F06CF900210548C3
:1038C00001F083FC0346002B01D000F063F900BF38
:1038D00080BD00BFA82A002000540040583D500081
:1038E00080B500AF1B4B1C4A1A601A4B4FF4827212
:1038F0005A60184B00229A60164B4FF4E062DA606F
:10390000144B02221A61134B01225A61114B4FF4DE
:1039100000729A610F4B1822DA610E4B00221A6274
:103920000C4B00225A620B4B00229A62094B072271
:10393000DA62084B00221A63064B00225A630548DC
:1039400002F088FC0346002B01D000F023F900BFF1
:1039500080BD00BFFC2A00200038004080B58AB03E
:1039600000AF07F11C0300221A605A609A603B46C0
:1039700000221A605A609A60DA601A615A619A618C
:10398000204B4FF080421A601E4B00225A601D4BA4
:1039900000229A601B4B47F6FF42DA60194B002267
:1039A0001A61184B00229A61164803F051F8034639
:1039B000002B01D000F0EEF80023FB6100237B62B6
:1039C00007F11C0319460F4803F068FE0346002B5D
:1039D00001D000F0DFF800233B6000237B60002370
:1039E000BB6000233B613B4600221946054803F0BB
:1039F000D5F90346002B01D000F0CCF800BF2837E2
:103A0000BD4680BD602B002080B588B000AF07F1B7
:103A10000C0300221A605A609A60DA601A615A4BED
:103A2000DB6C594A43F00403D364574BDB6C03F05F
:103A30000403BB60BB68544BDB6C534A43F0010387
:103A4000D364514BDB6C03F001037B607B684E4B0E
:103A5000DB6C4D4A43F00203D3644B4BDB6C03F049
:103A600002033B603B68002241F253014FF090405B
:103A700000F08AFD00224FF48861444800F084FD84
:103A800000227821424800F07FFD4FF40053FB6094
:103A900000233B6100237B6107F10C0319463B487F
:103AA00000F0D8FB41F25303FB6001233B6100238C
:103AB0007B610023BB6107F10C0319464FF0904076
:103AC00000F0C8FB8023FB604FF404133B6100232C
:103AD0007B6107F10C0319464FF0904000F0BAFBF0
:103AE0004FF48063FB6000233B6100237B6107F19F
:103AF0000C031946264800F0ADFB4FF48863FB60C9
:103B000001233B6100237B610023BB6107F10C03B0
:103B100019461E4800F09EFB4FF48073FB604FF483
:103B200044133B6100237B6107F10C0319464FF0FE
:103B3000904000F08FFB4FF40073FB6000233B616B
:103B400000237B6107F10C0319464FF0904000F011
:103B500081FB7823FB6001233B6100237B61002311
:103B6000BB6107F10C031946094800F073FB002202
:103B70000021172000F039FB172000F050FB00BF98
:103B80002037BD4680BD00BF00100240000800483D
:103B90000004004880B400AF72B600BF00BFFDE76C
:103BA00080B582B000AF0F4B1B6E0E4A43F001038D
:103BB00013660C4B1B6E03F001037B607B68094BA3
:103BC0009B6D084A43F080539365064B9B6D03F051
:103BD00080533B603B6801F0E9FB00BF0837BD46FE
:103BE00080BD00BF0010024080B5A0B000AF78607B
:103BF00007F16C0300221A605A609A60DA601A6159
:103C000007F1180354220021184603F045FE7B6893
:103C10001B682D4A934253D14023BB6100237B6331
:103C200007F11803184602F0C7F80346002B01D02D
:103C3000FFF7B0FF254BDB6C244A43F00103D3644C
:103C4000224BDB6C03F001037B617B691F4BDB6C58
:103C50001E4A43F00203D3641C4BDB6C03F00203E7
:103C60003B613B694FF40043FB6612233B67002333
:103C70007B670023BB670423FB6707F16C031946CE
:103C80004FF0904000F0E6FA8023FB6612233B677A
:103C900000237B670023BB670423FB6707F16C03EA
:103CA00019460B4800F0D6FA084B9B6D074A43F4BF
:103CB00000139365054B9B6D03F40013FB60FB68D9
:103CC00000BF8037BD4680BD005400400010024058
:103CD0000004004880B58AB000AF786007F1140393
:103CE00000221A605A609A60DA601A617B681B6869
:103CF000174A934228D1174B9B6D164A43F48043D1
:103D00009365144B9B6D03F480433B613B69114BFE
:103D1000DB6C104A43F00203D3640E4BDB6C03F000
:103D20000203FB60FB684FF420437B610223BB610D
:103D30000023FB6100233B6205237B6207F1140330
:103D40001946054800F086FA00BF2837BD4680BDF9
:103D500000380040001002400004004880B584B0E4
:103D600000AF78607B681B68B3F1804F13D10C4BB8
:103D70009B6D0B4A43F001039365094B9B6D03F068
:103D80000103FB60FB68002200211C2000F02DFADB
:103D90001C2000F044FA00BF1037BD4680BD00BFB4
:103DA0000010024080B400AF00BFFDE780B400AF58
:103DB00000BFFDE780B400AF00BFFDE780B400AFF7
:103DC00000BFFDE780B400AF00BFFDE780B400AFE7
:103DD00000BFBD465DF8047B704780B400AF00BFF4
:103DE000BD465DF8047B704780B400AF00BFBD46A0
:103DF0005DF8047B704780B500AF00F0DBF800BFD2
:103E000080BD80B500AF802000F0F0FB4FF48070E3
:103E100000F0ECFB00BF80BD80B500AF024802F0AF
:103E20006EFE00BF80BD00BF602B002080B586B055
:103E300000AF7860144A154BD31A7B617B693B61F4
:103E4000134B1B68002B02D1114B124A1A60104B06
:103E50001A687B6813443A699A4207D203F024FD3A
:103E600003460C221A604FF0FF3309E0084B1B6831
:103E7000FB60074B1A687B681344054A1360FB68B4
:103E800018461837BD4680BD00000220000400001F
:103E9000042F00205830002080B400AF064BD3F828
:103EA0008830054A43F47003C2F8883000BFBD462D
:103EB0005DF8047B704700BF00ED00E00D488546CB
:103EC000FFF7EAFF0C480D490D4A002302E0D458E1
:103ED000C4500433C4188C42F9D30A4A0A4C002354
:103EE00001E013600432A242FBD303F0E3FCFFF7CE
:103EF000A3F9FEE70000022000000020400A002095
:103F000024890008400A002054300020FEE780B5D4
:103F100082B000AF0023FB71032000F05BF90F209B
:103F200000F00EF80346002B02D00123FB7101E0E4
:103F3000FFF736FEFB7918460837BD4680BD000006
:103F400080B584B000AF78600023FB73164B1B680C
:103F5000002B22D0154B1A68134B1B684FF47A7153
:103F6000B1FBF3F3B2FBF3F3184600F066F9034636
:103F7000002B0FD17B680F2B09D8002279684FF0F6
:103F8000FF3000F032F90A4A7B68136007E0012332
:103F9000FB7304E00123FB7301E00123FB73FB7B54
:103FA00018461037BD4680BDEC090020E40900200A
:103FB000E809002080B400AF054B1A68054B1B6868
:103FC0001344034A136000BFBD465DF8047B70478D
:103FD000082F0020EC09002080B400AF034B1B68C1
:103FE0001846BD465DF8047B704700BF082F0020CF
:103FF00080B584B000AF7860FFF7EEFFB8607B68F3
:10400000FB60FB68B3F1FF3F04D0094B1B68FA6803
:104010001344FB6000BFFFF7DFFF0246BB68D31A03
:10402000FA689A42F7D800BF00BF1037BD4680BD7E
:10403000EC09002080B485B000AF78607B6803F0A5
:104040000703FB600C4BDB68BB60BA684FF6FF03ED
:104050001340BB60FB681A02BB68134343F0BF63A5
:1040600043F40033BB60044ABB68D36000BF14371D
:10407000BD465DF8047B704700ED00E080B400AF02
:10408000044BDB681B0A03F007031846BD465DF8C6
:10409000047B704700ED00E080B483B000AF0346BE
:1040A000FB7197F90730002B0BDBFB7903F01F0244
:1040B000074997F907305B09012000FA02F241F83D
:1040C000232000BF0C37BD465DF8047B704700BF5E
:1040D00000E100E080B483B000AF03463960FB71BB
:1040E00097F90730002B0ADB3B68DAB20C4997F9E5
:1040F00007301201D2B20B4483F800230AE03B6878
:10410000DAB20849FB7903F00F03043B1201D2B283
:104110000B441A7600BF0C37BD465DF8047B704730
:1041200000E100E000ED00E080B489B000AFF8608D
:10413000B9607A60FB6803F00703FB61FB69C3F1B8
:104140000703042B28BF0423BB61FB690433062B40
:1041500002D9FB69033B00E000237B614FF0FF3293
:10416000BB6902FA03F3DA43BB681A407B699A40E1
:104170004FF0FF317B6901FA03F3D9437B680B40B1
:10418000134318462437BD465DF8047B7047000092
:1041900080B582B000AF78607B68013BB3F1807F6F
:1041A00001D301230FE00A4A7B68013B53600F21D2
:1041B0004FF0FF30FFF78EFF054B00229A60044B53
:1041C00007221A60002318460837BD4680BD00BF8D
:1041D00010E000E080B582B000AF78607868FFF74B
:1041E00029FF00BF0837BD4680BD80B586B000AF4F
:1041F0000346B9607A60FB73FFF740FF78617A6825
:10420000B9687869FFF790FF024697F90F301146B9
:104210001846FFF75FFF00BF1837BD4680BD80B569
:1042200082B000AF0346FB7197F907301846FFF7DD
:1042300033FF00BF0837BD4680BD80B582B000AFF8
:1042400078607868FFF7A4FF034618460837BD4634
:1042500080BD000080B487B000AF78603960002373
:104260007B615AE13B681A6801217B6901FA03F31B
:104270001340FB60FB68002B00F04C813B685B68DF
:1042800003F00303012B05D03B685B6803F00303D5
:10429000022B30D17B689B683B617B695B0003220A
:1042A00002FA03F3DB433A6913403B613B68DA6887
:1042B0007B695B0002FA03F33A6913433B617B6855
:1042C0003A699A607B685B683B6101227B6902FA0C
:1042D00003F3DB433A6913403B613B685B681B09AE
:1042E00003F001027B6902FA03F33A6913433B616D
:1042F0007B683A695A603B685B6803F00303032BF1
:1043000017D07B68DB683B617B695B00032202FAA4
:1043100003F3DB433A6913403B613B689A687B696E
:104320005B0002FA03F33A6913433B617B683A6925
:10433000DA603B685B6803F00303022B23D17B69DF
:10434000DA087B68083253F822303B617B6903F05E
:1043500007039B000F2202FA03F3DB433A69134081
:104360003B613B681A697B6903F007039B0002FA13
:1043700003F33A6913433B617B69DA087B680832CF
:10438000396943F822107B681B683B617B695B00DD
:10439000032202FA03F3DB433A6913403B613B68B3
:1043A0005B6803F003027B695B0002FA03F33A697E
:1043B00013433B617B683A691A603B685B6803F4AE
:1043C0004033002B00F0A6805B4B1B6E5A4A43F033
:1043D00001031366584B1B6E03F00103BB60BB68FF
:1043E000564A7B699B08023352F823303B617B6954
:1043F00003F003039B000F2202FA03F3DB433A6945
:1044000013403B617B68B3F1904F1FD07B684C4AEF
:10441000934219D07B684B4A934213D07B684A4A37
:1044200093420DD07B68494A934207D07B68484A43
:10443000934201D105230AE0062308E0042306E0A5
:10444000032304E0022302E0012300E000237A6951
:1044500002F00302920093403A6913433B613749EB
:104460007B699B0802333A6941F82320394B9B68EA
:104470003B61FB68DB433A6913403B613B685B6827
:1044800003F48013002B03D03A69FB6813433B61AC
:10449000304A3B6993602F4BDB683B61FB68DB4331
:1044A0003A6913403B613B685B6803F40013002BDF
:1044B00003D03A69FB6813433B61264A3B69D360EA
:1044C000244B5B683B61FB68DB433A6913403B610B
:1044D0003B685B6803F40033002B03D03A69FB6848
:1044E00013433B611B4A3B6953601A4B1B683B619A
:1044F000FB68DB433A6913403B613B685B6803F44C
:104500008033002B03D03A69FB6813433B61114AA7
:104510003B6913607B6901337B613B681A687B6987
:1045200022FA03F3002B7FF49DAE00BF00BF1C37BF
:10453000BD465DF8047B704700100240000001405A
:104540000004004800080048000C00480010004823
:10455000001400480004014080B485B000AF7860CA
:104560000B467B807B681A697B881340002B02D046
:104570000123FB7301E00023FB73FB7B1846143718
:10458000BD465DF8047B704780B483B000AF7860AF
:104590000B467B8013467B707B78002B03D07A8898
:1045A0007B689A6102E07A887B689A6200BF0C3768
:1045B000BD465DF8047B704780B485B000AF78607D
:1045C0000B467B807B685B69FB607A88FB681340E5
:1045D0001A04FB68D9437B880B401A437B689A61B5
:1045E00000BF1437BD465DF8047B704780B582B0CC
:1045F00000AF0346FB80084B5A69FB881340002B31
:1046000006D0054AFB885361FB881846FEF70AFD71
:1046100000BF0837BD4680BD0004014080B582B0B0
:1046200000AF78607B68002B01D101238DE07B68AF
:1046300093F84130DBB2002B06D17B68002283F86F
:1046400040207868FFF7D0FA7B68242283F8412065
:104650007B681B681A687B681B6822F001021A607D
:104660007B685A687B681B6822F070621A617B68FD
:104670001B689A687B681B6822F400429A607B681A
:10468000DB68012B07D17B689A687B681B6842F462
:1046900000429A6006E07B689A687B681B6842F477
:1046A00004429A607B68DB68022B08D17B681B6838
:1046B0005A687B681B6842F400625A6007E07B68B6
:1046C0001B685A687B681B6822F400625A607B682A
:1046D0001B685B687A68126843F0007343F4004318
:1046E00053607B681B68DA687B681B6822F40042B1
:1046F000DA607B681A697B685B6942EA03017B6860
:104700009B691A027B681B680A43DA607B68D96977
:104710007B681A6A7B681B680A431A607B681B689F
:104720001A687B681B6842F001021A607B680022ED
:104730005A647B68202283F841207B6800221A6338
:104740007B68002283F84220002318460837BD46C4
:1047500080BD000080B588B002AFF8600846114601
:104760001A4603467B810B463B811346FB80FB6860
:1047700093F84130DBB2202B40F0F9803B6A002BEC
:1047800002D0BB8C002B05D1FB684FF400725A6439
:104790000123EDE0FB6893F84030012B01D10223A7
:1047A000E6E0FB68012283F84020FFF715FC786102
:1047B0007B690093192301224FF40041F86800F04F
:1047C000C3FA0346002B01D00123D1E0FB6821226C
:1047D00083F84120FB68402283F84220FB680022D6
:1047E0005A64FB683A6A5A62FB68BA8C5A85FB685D
:1047F00000225A63F8883A8979897B690193BB6AF8
:1048000000930346F86800F0D3F90346002B05D067
:10481000FB68002283F840200123A9E0FB685B8D40
:104820009BB2FF2B0ED9FB68FF221A85FB681B8DFC
:10483000DAB27989002300934FF08073F86800F0B2
:1048400047FC0FE0FB685B8D9AB2FB681A85FB683A
:104850001B8DDAB27989002300934FF00073F8685A
:1048600000F036FC7A69B96AF86800F0C6FA0346C7
:10487000002B01D001237BE0FB685B6A1A78FB68A0
:104880001B689A62FB685B6A5A1CFB685A62FB6889
:104890005B8D9BB2013B9AB2FB685A85FB681B8D0E
:1048A000013B9AB2FB681A85FB685B8D9BB2002BBB
:1048B00034D0FB681B8D002B30D17B690093BB6A21
:1048C00000228021F86800F03FFA0346002B01D057
:1048D00001234DE0FB685B8D9BB2FF2B0ED9FB687B
:1048E000FF221A85FB681B8DDAB2798900230093B9
:1048F0004FF08073F86800F0EBFB0FE0FB685B8D16
:104900009AB2FB681A85FB681B8DDAB2798900239D
:1049100000934FF00073F86800F0DAFBFB685B8DE2
:104920009BB2002B9ED17A69B96AF86800F0ACFAA4
:104930000346002B01D001231AE0FB681B682022EC
:10494000DA61FB681B685968FB681A680A4B0B4000
:104950005360FB68202283F84120FB68002283F823
:104960004220FB68002283F84020002300E002235D
:1049700018461837BD4680BD00E800FE80B588B0F7
:1049800002AFF860084611461A4603467B810B4683
:104990003B811346FB80FB6893F84130DBB2202B50
:1049A00040F0FD803B6A002B02D0BB8C002B05D170
:1049B000FB684FF400725A640123F1E0FB6893F83E
:1049C0004030012B01D10223EAE0FB68012283F889
:1049D0004020FFF701FB78617B69009319230122D6
:1049E0004FF40041F86800F0AFF90346002B01D006
:1049F0000123D5E0FB68222283F84120FB68402296
:104A000083F84220FB6800225A64FB683A6A5A62C3
:104A1000FB68BA8C5A85FB6800225A63F8883A8989
:104A200079897B690193BB6A00930346F86800F0BB
:104A300013F90346002B05D0FB68002283F84020C1
:104A40000123ADE0FB685B8D9BB2FF2B0ED9FB68A9
:104A5000FF221A85FB681B8DDAB27989524B0093CD
:104A60004FF08073F86800F033FB0FE0FB685B8D5C
:104A70009AB2FB681A85FB681B8DDAB279894A4BBA
:104A800000934FF00073F86800F022FB7B690093FD
:104A9000BB6A00220421F86800F056F90346002B97
:104AA00001D001237CE0FB681B685A6AFB685B6AE3
:104AB000D2B21A70FB685B6A5A1CFB685A62FB68C8
:104AC0001B8D013B9AB2FB681A85FB685B8D9BB21C
:104AD000013B9AB2FB685A85FB685B8D9BB2002B49
:104AE00034D0FB681B8D002B30D17B690093BB6AEF
:104AF00000228021F86800F027F90346002B01D03E
:104B000001234DE0FB685B8D9BB2FF2B0ED9FB6848
:104B1000FF221A85FB681B8DDAB279890023009386
:104B20004FF08073F86800F0D3FA0FE0FB685B8DFC
:104B30009AB2FB681A85FB681B8DDAB2798900236B
:104B400000934FF00073F86800F0C2FAFB685B8DC9
:104B50009BB2002B9AD17A69B96AF86800F094F98F
:104B60000346002B01D001231AE0FB681B682022BA
:104B7000DA61FB681B685968FB681A680B4B0B40CD
:104B80005360FB68202283F84120FB68002283F8F1
:104B90004220FB68002283F84020002300E002232B
:104BA00018461837BD4680BD0024008000E800FE8E
:104BB00080B586B002AFF860084611461A46034633
:104BC0007B810B463B811346FB80FB88DAB27989F7
:104BD000204B00934FF08073F86800F079FAFA697F
:104BE000B969F86800F009F90346002B01D00123E8
:104BF0002CE0FB88012B05D13B89DAB2FB681B68EE
:104C00009A6215E03B891B0A9BB2DAB2FB681B680B
:104C10009A62FA69B969F86800F0EFF80346002B68
:104C200001D0012312E03B89DAB2FB681B689A626B
:104C3000FB690093BB6900228021F86800F084F8CA
:104C40000346002B01D0012300E000231846103753
:104C5000BD4680BD0020008080B586B002AFF86000
:104C6000084611461A4603467B810B463B81134694
:104C7000FB80FB88DAB27989204B00930023F86827
:104C800000F026FAFA69B969F86800F0B6F8034648
:104C9000002B01D001232CE0FB88012B05D13B899F
:104CA000DAB2FB681B689A6215E03B891B0A9BB26B
:104CB000DAB2FB681B689A62FA69B969F86800F0B1
:104CC0009CF80346002B01D0012312E03B89DAB2A5
:104CD000FB681B689A62FB690093BB690022402154
:104CE000F86800F031F80346002B01D0012300E002
:104CF000002318461037BD4680BD00BF002000804D
:104D000080B483B000AF78607B681B689B6903F058
:104D10000203022B03D17B681B6800229A627B6826
:104D20001B689B6903F00103012B07D07B681B689C
:104D30009A697B681B6842F001029A6100BF0C37D8
:104D4000BD465DF8047B704780B584B000AFF86065
:104D5000B9603B601346FB713BE0BA693968F8689B
:104D600000F0D6F80346002B01D0012341E03B6858
:104D7000B3F1FF3F2DD0FFF72FF90246BB69D31ADD
:104D80003A689A4202D33B68002B22D1FB681B6829
:104D90009A69BB681340BA689A420CBF012300238A
:104DA000DBB21A46FB799A4213D1FB685B6C43F085
:104DB0002002FB685A64FB68202283F84120FB68CC
:104DC000002283F84220FB68002283F84020012360
:104DD0000FE0FB681B689A69BB681340BA689A4287
:104DE0000CBF01230023DBB21A46FB799A42B4D0F0
:104DF000002318461037BD4680BD80B584B000AF93
:104E0000F860B9607A6033E07A68B968F86800F0F1
:104E10007FF80346002B01D0012331E0BB68B3F1DA
:104E2000FF3F25D0FFF7D8F802467B68D31ABA684F
:104E30009A4202D3BB68002B1AD1FB681B689B699E
:104E400003F00203022B13D0FB685B6C43F02002DB
:104E5000FB685A64FB68202283F84120FB6800222B
:104E600083F84220FB68002283F84020012307E0FA
:104E7000FB681B689B6903F00203022BC4D100236B
:104E800018461037BD4680BD80B584B000AFF860CD
:104E9000B9607A602FE07A68B968F86800F038F88D
:104EA0000346002B01D001232DE0FFF795F80246C1
:104EB0007B68D31ABA689A4202D3BB68002B1AD116
:104EC000FB681B689B6903F02003202B13D0FB6851
:104ED0005B6C43F02002FB685A64FB68202283F875
:104EE0004120FB68002283F84220FB68002283F8FF
:104EF0004020012307E0FB681B689B6903F0200347
:104F0000202BC8D1002318461037BD4680BD0000B5
:104F100080B58AB000AFF860B9607A60002387F886
:104F20002730FB681B689B69BB6100233B627B6881
:104F3000FB61BB6903F01003002B68D0FB681B68A2
:104F40001022DA6149E0BB68B3F1FF3F45D0FFF7BB
:104F500043F80246FB69D31ABA689A4202D3BB6887
:104F6000002B3AD1FB681B685B6803F480437B61CC
:104F7000FB6893F84230FB74FB681B689B6903F481
:104F80000043B3F5004F21D17B69B3F5804F1DD0AD
:104F9000FB7C202B1AD0FB681B685A68FB681B68D7
:104FA00042F480425A60FFF717F8F8610EE0FFF70D
:104FB00013F80246FB69D31A192B07D93B6A43F051
:104FC00020033B62012387F8273006E0FB681B685B
:104FD0009B6903F02003202BE9D1FB681B689B69C8
:104FE00003F02003202B03D097F82730002BAAD002
:104FF00097F82730002B03D1FB681B682022DA6169
:105000003B6A43F004033B62012387F82730FB68C7
:105010001B689B69BB61BB6903F48073002B0BD0D9
:105020003B6A43F001033B62FB681B684FF48072EC
:10503000DA61012387F82730BB6903F48063002B12
:105040000BD03B6A43F008033B62FB681B684FF4DC
:105050008062DA61012387F82730BB6903F40073AB
:10506000002B0BD03B6A43F002033B62FB681B68DA
:105070004FF40072DA61012387F8273097F8273060
:10508000002B1CD0F868FFF73BFEFB681B685968D3
:10509000FB681A680D4B0B405360FB685A6C3B6A07
:1050A0001A43FB685A64FB68202283F84120FB689E
:1050B000002283F84220FB68002283F8402097F802
:1050C000273018462837BD4680BD00BF00E800FEE7
:1050D00080B487B000AFF8607B600B467B811346DD
:1050E0007B727B89C3F309027B7A1B0403F47F0381
:1050F0001A437B681A433B6A134323F000437B61E6
:10510000FB681B685A683B6A5B0D03F48061084BBF
:105110000B43DB4302EA0301FB681B687A690A431D
:105120005A6000BF1C37BD465DF8047B704700BF66
:10513000FF63FF0380B483B000AF786039607B68A1
:1051400093F84130DBB2202B38D17B6893F84030A4
:10515000012B01D1022332E07B68012283F8402039
:105160007B68242283F841207B681B681A687B686F
:105170001B6822F001021A607B681B681A687B6852
:105180001B6822F480521A607B681B6819687B6870
:105190001B683A680A431A607B681B681A687B6858
:1051A0001B6842F001021A607B68202283F84120CC
:1051B0007B68002283F84020002300E00223184689
:1051C0000C37BD465DF8047B704780B485B000AFF6
:1051D000786039607B6893F84130DBB2202B39D19D
:1051E0007B6893F84030012B01D1022333E07B68C8
:1051F000012283F840207B68242283F841207B68C9
:105200001B681A687B681B6822F001021A607B68C1
:105210001B681B68FB60FB6823F47063FB603B68E2
:105220001B02FA681343FB607B681B68FA681A600C
:105230007B681B681A687B681B6842F001021A6071
:105240007B68202283F841207B68002283F840207D
:10525000002300E0022318461437BD465DF8047BA6
:105260007047000080B485B000AF78607B68002B89
:1052700041D14B4B1B6803F4C063B3F5806F31D150
:10528000474BD3F88030464A23F48073C2F880300D
:10529000434B1B6823F4C063414A43F4007313601B
:1052A000404B1B68322202FB03F33F4AA2FB03235D
:1052B0009B0C0133FB6002E0FB68013BFB60384B59
:1052C0005B6903F48063B3F5806F02D1FB68002B48
:1052D000F2D1334B5B6903F48063B3F5806F58D12F
:1052E000032357E02E4BD3F880302D4A23F48073EC
:1052F000C2F880304DE07B68B3F5007F41D1284B88
:105300001B6803F4C063B3F5806F31D1244BD3F82D
:105310008030234A43F48073C2F88030204B1B68EE
:1053200023F4C0631E4A43F4007313601D4B1B68D3
:10533000322202FB03F31C4AA2FB03239B0C013322
:10534000FB6002E0FB68013BFB60154B5B6903F40B
:105350008063B3F5806F02D1FB68002BF2D1104B54
:105360005B6903F48063B3F5806F12D1032311E00E
:105370000B4BD3F880300A4A43F48073C2F8803074
:1053800007E0074B1B6823F4C063054A43F48063BE
:105390001360002318461437BD465DF8047B704740
:1053A00000700040E409002083DE1B4380B400AF9E
:1053B000054B9B68044A43F48043936000BFBD469D
:1053C0005DF8047B704700BF0070004080B588B076
:1053D00000AF78607B68002B01D10123FEE27B687F
:1053E0001B6803F00103002B75D0974B9B6803F0FB
:1053F0000C03BB61944BDB6803F003037B61BB6967
:105400000C2B02D17B69032B02D0BB69082B0BD17B
:105410008D4B1B6803F40033002B5BD07B685B680B
:10542000002B57D10123D9E27B685B68B3F5803F3D
:1054300006D1854B1B68844A43F4803313601DE01A
:105440007B685B68B3F5A02F0CD17F4B1B687E4A4D
:1054500043F4802313607C4B1B687B4A43F4803306
:1054600013600BE0784B1B68774A23F4803313609A
:10547000754B1B68744A23F4802313607B685B6858
:10548000002B13D0FEF7A8FD386108E0FEF7A4FD5D
:1054900002463B69D31A642B01D903239EE26A4B6F
:1054A0001B6803F40033002BF0D014E0FEF794FDEA
:1054B000386108E0FEF790FD02463B69D31A642B81
:1054C00001D903238AE2604B1B6803F40033002BED
:1054D000F0D100E000BF7B681B6803F00203002BE3
:1054E00075D0594B9B6803F00C03BB61564BDB68CE
:1054F00003F003037B61BB690C2B02D17B69022B98
:1055000002D0BB69042B1FD14F4B1B6803F480638F
:10551000002B05D07B68DB68002B01D101235DE205
:10552000494B5B6823F0FE427B681B691B064649BA
:1055300013434B60454B1B681846FEF701FD0346BD
:10554000002B43D0012349E27B68DB68002B23D08A
:105550003D4B1B683C4A43F480731360FEF73CFDEF
:10556000386108E0FEF738FD02463B69D31A022B8A
:1055700001D9032332E2344B1B6803F48063002B10
:10558000F0D0314B5B6823F0FE427B681B691B0641
:105590002D4913434B601AE02B4B1B682A4A23F416
:1055A00080731360FEF718FD386108E0FEF714FD04
:1055B00002463B69D31A022B01D903230EE2224B88
:1055C0001B6803F48063002BF0D100E000BF7B6810
:1055D0001B6803F00803002B41D07B685B69002B3C
:1055E0001CD0194BD3F89430174A43F00103C2F88A
:1055F0009430FEF7F1FC386108E0FEF7EDFC02465E
:105600003B69D31A022B01D90323E7E10E4BD3F8F0
:10561000943003F00203002BEFD020E00A4BD3F8C4
:105620009430094A23F00103C2F89430FEF7D4FC09
:1056300038610DE0FEF7D0FC02463B69D31A022B1D
:1056400006D90323CAE100BF00100240E809002088
:105650008C4BD3F8943003F00203002BEAD17B6823
:105660001B6803F00403002B00F0A6800023FB77E7
:10567000844B9B6D03F08053002B01D1012300E08C
:105680000023002B0DD07F4B9B6D7E4A43F080534F
:1056900093657C4B9B6D03F08053FB60FB6801239B
:1056A000FB77794B1B6803F48073002B18D1764B82
:1056B0001B68754A43F480731360FEF78DFC3861F4
:1056C00008E0FEF789FC02463B69D31A022B01D998
:1056D000032383E16C4B1B6803F48073002BF0D031
:1056E0007B689B68012B08D1664BD3F89030654AE4
:1056F00043F00103C2F8903024E07B689B68052BDF
:1057000010D1604BD3F890305E4A43F00403C2F8E6
:1057100090305C4BD3F890305A4A43F00103C2F802
:1057200090300FE0574BD3F89030564A23F00103E6
:10573000C2F89030534BD3F89030524A23F0040310
:10574000C2F890307B689B68002B16D0FEF744FCB3
:1057500038610AE0FEF740FC02463B69D31A41F289
:105760008832934201D9032338E1464BD3F8903075
:1057700003F00203002BEDD015E0FEF72DFC38619D
:105780000AE0FEF729FC02463B69D31A41F288324F
:10579000934201D9032321E13A4BD3F8903003F02F
:1057A0000203002BEDD1FB7F012B05D1354B9B6D07
:1057B000344A23F0805393657B681B6803F0200311
:1057C000002B3CD07B689B69002B1CD02D4BD3F861
:1057D00098302C4A43F00103C2F89830FEF7FCFBE6
:1057E000386108E0FEF7F8FB02463B69D31A022B4A
:1057F00001D90323F2E0234BD3F8983003F00203DE
:10580000002BEFD01BE01F4BD3F898301D4A23F03C
:105810000103C2F89830FEF7DFFB386108E0FEF7BD
:10582000DBFB02463B69D31A022B01D90323D5E0E7
:10583000144BD3F8983003F00203002BEFD17B68B0
:10584000DB69002B00F0C9800E4B9B6803F00C0352
:105850000C2B00F083807B68DB69022B5ED1094B47
:105860001B68084A23F080731360FEF7B5FB3861AC
:105870000CE0FEF7B1FB02463B69D31A022B05D9B7
:105880000323ABE00010024000700040554B1B6842
:1058900003F00073002BECD1524BDA68524B1340EB
:1058A0007A68116A7A68526A013A120111437A6879
:1058B000926A120211437A68126B5208013A520539
:1058C00011437A68526B5208013A520611437A68C2
:1058D000D26AD2060A4343491343CB60414B1B684B
:1058E000404A43F0807313603E4BDB683D4A43F00F
:1058F0008073D360FEF770FB386108E0FEF76CFB45
:1059000002463B69D31A022B01D9032366E0354BCB
:105910001B6803F00073002BF0D05EE0314B1B6876
:10592000304A23F080731360FEF756FB386108E0BD
:10593000FEF752FB02463B69D31A022B01D903231F
:105940004CE0284B1B6803F00073002BF0D1254B73
:10595000DA682449254B1340CB603EE07B68DB6965
:10596000012B01D1012339E01E4BDB687B617B6990
:1059700003F003027B681B6A9A422CD17B6903F017
:10598000F0027B685B6A013B1B019A4223D17B6971
:1059900003F4FE427B689B6A1B029A421BD17B691F
:1059A00003F078427B68DB6ADB069A4213D17B699D
:1059B00003F4C0027B681B6B5B08013B5B059A42EA
:1059C00009D17B6903F0C0627B685B6B5B08013BBC
:1059D0005B069A4201D0012300E0002318462037DD
:1059E000BD4680BD001002400C809F01FCFFEEFE12
:1059F00080B586B000AF7860396000237B617B683A
:105A0000002B01D101231EE1914B1B6803F00F0312
:105A10003A689A4210D98E4B1B6823F00F028C49CA
:105A20003B6813430B608A4B1B6803F00F033A6813
:105A30009A4201D0012306E17B681B6803F0010351
:105A4000002B73D07B685B68032B29D1814B1B68CB
:105A500003F00073002B01D10123F4E000F066F99C
:105A600038613B697C4A93423FD97A4B9B6803F08B
:105A7000F003002B09D07B681B6803F00203002BA6
:105A800033D07B689B68002B2FD1724B9B6823F02F
:105A9000F003704A43F08003936080237B6124E02D
:105AA0007B685B68022B07D16A4B1B6803F40033E9
:105AB000002B09D10123C6E0664B1B6803F4806309
:105AC000002B01D10123BEE000F0CEF838613B6924
:105AD000614A934209D95F4B9B6823F0F0035D4A0A
